:100000000C947B000C94A3000C94A3000C94A3000C
:100010000C94A3000C94A3000C94A3000C94A300D4
:100020000C94A3000C94A3000C94A3000C94A300C4
:100030000C94A3000C94A3000C94A3000C94A300B4
:100040000C94CF020C94A3000C94B7050C94E90512
:100050000C94A3000C94A3000C94A3000C94A30094
:100060000C94A3000C94A30094018F0194019601B9
:10007000980198019A019801AE01AE01AE01AE015E
:100080009C01AE01AE01AE01A0019E01A001A20142
:100090009A01AE01AE01A401A60100000008000211
:1000A000010000030407000000000000000001023E
:1000B00004081020408001020408102001020408F6
:1000C00010200404040404040404020202020202D4
:1000D000030303030303000000002300260029009C
:1000E00000000000250028002B0000000000240074
:1000F00027002A00190611241FBECFEFD8E0DEBF6B
:10010000CDBF11E0A0E0B1E0E6E9FEE002C005905D
:100110000D92A232B107D9F721E0A2E2B1E001C00D
:100120001D92A93CB207E1F710E0C6EFD0E004C091
:100130002297FE010E944507C43FD107C9F70E94DC
:1001400011070C9449070C940000CF93C82F60E06E
:100150008AE00E941304CEBD00000DB407FEFDCF5F
:10016000CEB561E08AE00E9413048C2FCF910895F0
:10017000CF92DF92EF92FF92CF93DF9300D000D027
:10018000CDB7DEB7806449835A836B837C830E943A
:10019000A5004981C42E5A81D52E6B81E62E7C8123
:1001A000F72EC114D10480E4E806F10430F0CC2429
:1001B000CA94DC2C9FE3E92EF12C8E2D0E94A50021
:1001C0008D2D0E94A5008C2D0F900F900F900F90F9
:1001D000DF91CF91FF90EF90DF90CF900C94A5002E
:1001E00080EB0C94A50040E054E660E070E081E014
:1001F0000E94B80080E10E944904892BD9F30E9433
:10020000F00080E10E944904892BD9F360918400B9
:10021000709185004AE050E08CE291E00E94FA067D
:10022000FFCFCF93DF9380ED0E94A50080E00E9476
:10023000A500C82FD0E0DC2FCC2780E00E94A500CD
:100240009E01282BC901DF91CF9108958F929F9233
:10025000AF92BF92CF92DF92EF92FF92CF93542F43
:10026000569556955695242F277009F05F5F20E22A
:1002700030E0241B3109CC24CA94DC2C760104C064
:10028000F694E794D794C7942A95D2F7CC2DBD2C39
:100290002E2D6C157D058E059F0518F4C62FB72EE3
:1002A000282F533021F4822F0E94A50002C0523023
:1002B00060F08B2D0E94A500882E912C982C88240C
:1002C000AA2497FCA094BA2C05C0812C912C54012F
:1002D000552321F08C2F0E94A500882AC701B60162
:1002E000682179218A219B21CF91FF90EF90DF90A7
:1002F000CF90BF90AF909F908F9008950F931F93D2
:10030000082F842FA62F972F10E0015011090931D3
:10031000110520F50C5C1F4FF8010C94430749E0D0
:10032000682F752F8A2F16C046E1FACF44E10FC01F
:100330004CE0F6CF4AE0F4CF4EE0F2CF80E00EC0C2
:100340008F700CC08F770AC040E1EACF40E160E0D7
:1003500070E0CB011F910F910C9426010E94A50023
:10036000682F70E080E090E01F910F9108951F9337
:10037000CF93DF9300D000D0CDB7DEB7182F4983DD
:100380005A836B837C830E94A50049815A816B81CB
:100390007C81812F0F900F900F900F90DF91CF9164
:1003A0001F910C947E01CF93C82F80620E94A500FC
:1003B00040E050E0BA018C2FCF910C947E0161E0B7
:1003C0008AE00E94DA0361E08AE00E94DA0361E0D9
:1003D0008AE00E94130461E08CE00E94DA0360E08E
:1003E0008DE00E94DA0361E08EE00E94DA0360E0B3
:1003F00080E10E94DA0361E08BE00E94DA0361E0B1
:100400008BE00E94130461E070E080E090E00E94C5
:100410003C0360E08BE00E94130461E070E080E048
:1004200090E00E943C0361E08BE00E94130461E0D5
:1004300070E080E090E00E943C030E9499028CB53D
:100440008F7D8CBD8CB58C7F81608CBD8DB58E7F92
:100450008DBD8CB58C608CBD089526E040E855E2DA
:1004600060E070E08CE291E00E94550561E08EE072
:100470000E94DA0361E08FE00E94DA0360E088E026
:100480000E94DA0360E085E00E94DA0360E08EE01B
:100490000E94130460E08FE00E9413040E94DF01B9
:1004A00088E10E94D30168387E428105910521F4DC
:1004B00061E08EE00E94130444E150E060E070E0EF
:1004C00086E10E94B7014AE150E060E070E087E019
:1004D0000E94B70142E050E060E070E085E10E94D8
:1004E000B7014FEF5FE060E070E085E00E94B70188
:1004F0004FE050E060E070E083E10E94B70140E02F
:100500005CE160E070E088E10E94B7014FEF50E0ED
:1005100060E070E08AE00E94B7010E941101109231
:10052000800086E080938100109285001092840004
:100530000895CF93CFB7F89480912201811127C0FD
:10054000ECECF0E08491E8EBF0E09491E82FF0E03F
:10055000EE0FFF1FE651FF4FA591B4918C918923B7
:1005600021F461E08AE00E94130461E08AE00E94C5
:10057000DA038CB580618CBD8CB580648CBD61E084
:100580008DE00E94DA0361E08BE00E94DA03809143
:1005900022018F5F80932201CFBFCF9108951F92D8
:1005A0000F920FB60F9211242F933F938F939F9327
:1005B000AF93BF938091240190912501A0912601D2
:1005C000B09127013091230123E0230F2D3720F430
:1005D0000196A11DB11D05C026E8230F0296A11D9D
:1005E000B11D209323018093240190932501A093B2
:1005F0002601B09327018091280190912901A091B3
:100600002A01B0912B010196A11DB11D80932801F3
:1006100090932901A0932A01B0932B01BF91AF9130
:100620009F918F913F912F910F900FBE0F901F9030
:1006300018953FB7F8948091280190912901A091D5
:100640002A01B0912B0126B5A89B05C02F3F19F0B8
:100650000196A11DB11D3FBF6627782F892F9A2FC4
:10066000620F711D811D911D42E0660F771F881F6B
:10067000991F4A95D1F708958F929F92AF92BF929A
:10068000CF92DF92EF92FF926B017C010E941903DF
:100690004B015C01C114D104E104F104F1F00E94AA
:1006A00020070E941903681979098A099B09683E85
:1006B00073408105910570F321E0C21AD108E10869
:1006C000F10888EE880E83E0981EA11CB11CC114AD
:1006D000D104E104F10429F7DDCFFF90EF90DF9022
:1006E000CF90BF90AF909F908F900895789484B5ED
:1006F000826084BD84B5816084BD85B5826085BD1E
:1007000085B5816085BDEEE6F0E080818160808303
:10071000E1E8F0E0108280818260808380818160E6
:100720008083E0E8F0E0808181608083E1EBF0E0AD
:10073000808184608083E0EBF0E080818160808351
:10074000EAE7F0E08081846080838081826080833A
:100750008081816080838081806880831092C10065
:100760000895833081F028F4813099F08230A1F02F
:1007700008958730A9F08830B9F08430D1F48091A1
:1007800080008F7D03C0809180008F7780938000F0
:10079000089584B58F7702C084B58F7D84BD089598
:1007A0008091B0008F7703C08091B0008F7D8093DF
:1007B000B0000895CF93DF9390E0FC01E255FF4F26
:1007C0002491FC01EE53FF4F8491882349F190E07E
:1007D000880F991FFC01E651FF4FA591B4918052FB
:1007E0009F4FFC01C591D4919FB7611108C0F89447
:1007F0008C91209582238C93888182230AC0623059
:1008000051F4F8948C91322F309583238C93888106
:10081000822B888304C0F8948C91822B8C939FBF89
:10082000DF91CF9108950F931F93CF93DF931F9282
:10083000CDB7DEB7282F30E0F901E656FF4F84919F
:10084000F901E255FF4F1491F901EE53FF4F049166
:100850000023C9F0882321F069830E94B1036981D4
:10086000E02FF0E0EE0FFF1FE052FF4FA591B49193
:100870009FB7F8948C91611103C01095812301C03A
:10088000812B8C939FBF0F90DF91CF911F910F9180
:100890000895CF93DF93282F30E0F901E656FF4FFC
:1008A0008491F901E255FF4FD491F901EE53FF4FC6
:1008B000C491CC2391F081110E94B103EC2FF0E0A0
:1008C000EE0FFF1FEA52FF4FA591B4912C912D23FB
:1008D00081E090E021F480E002C080E090E0DF91D0
:1008E000CF910895FC01818D228D90E0805C9F4F17
:1008F000821B91098F7399270895FC01918D828D38
:10090000981731F0828DE80FF11D858D90E00895E4
:100910008FEF9FEF0895FC01918D828D981761F004
:10092000828DDF01A80FB11D5D968C91928D9F5F26
:100930009F73928F90E008958FEF9FEF08958FE05F
:1009400096E0892B49F080E090E0892B29F00E9405
:100950000F0681110C9400000895FC01848DDF01C5
:10096000A80FB11DA35ABF4F2C91848D90E0019622
:100970008F739927848FA689B7892C93A089B18911
:100980008C9180648C93938D848D981306C002881B
:10099000F389E02D80818F7D80830895CF93DF934D
:1009A000EC01888D8823C9F0EA89FB89808185FD67
:1009B00005C0A889B9898C9186FD0FC00FB607FCC8
:1009C000F5CF808185FFF2CFA889B9898C9185FF09
:1009D000EDCFCE010E94AD04E7CFDF91CF91089516
:1009E000CF92DF92FF920F931F93CF93DF931F92CB
:1009F000CDB7DEB76C0181E0D60158968C9358973D
:100A00005B969C915B975C968C915C97981307C062
:100A10005096ED91FC915197808185FD2EC0F60195
:100A2000038D10E00F5F1F4F0F731127F02EF6019B
:100A3000848DF81211C00FB607FCF9CFD60150967D
:100A4000ED91FC915197808185FFF1CFC6016983BB
:100A50000E94AD046981EBCF838DE80FF11DE35A4D
:100A6000FF4F6083D6015B960C935B975296ED9196
:100A7000FC915397808180620CC0D6015696ED910F
:100A8000FC91579760835096ED91FC91519780812E
:100A90008064808381E090E00F90DF91CF911F917F
:100AA0000F91FF90DF90CF900895BF92CF92DF9289
:100AB000EF92FF92CF93DF93EC016A017B01B22E9C
:100AC000E889F98982E08083411581EE5807610544
:100AD0007105A1F060E079E08DE390E0A701960157
:100AE0000E94210721503109410951095695479526
:100AF00037952795211580E1380798F0E889F9891D
:100B0000108260E874E88EE190E0A70196010E94EF
:100B100021072150310941095109569547953795CB
:100B20002795EC85FD853083EE85FF852083188E23
:100B3000EC89FD89B082EA89FB89808180618083AC
:100B4000EA89FB89808188608083EA89FB898081CA
:100B500080688083EA89FB8980818F7D8083DF9133
:100B6000CF91FF90EF90DF90CF90BF9008951F92AC
:100B70000F920FB60F9211242F938F939F93EF93A1
:100B8000FF93E0913C01F0913D018081E0914201B1
:100B9000F091430182FD12C09081809145018F5FE9
:100BA0008F7320914601821751F0E0914501F0E0EA
:100BB000E45DFE4F958F8093450101C08081FF91D8
:100BC000EF919F918F912F910F900FBE0F901F90DB
:100BD00018951F920F920FB60F9211242F933F93E7
:100BE0004F935F936F937F938F939F93AF93BF9335
:100BF000EF93FF938CE291E00E94AD04FF91EF919F
:100C0000BF91AF919F918F917F916F915F914F9124
:100C10003F912F910F900FBE0F901F9018958CE26F
:100C200091E00E94720421E0892B09F420E0822FD8
:100C3000089510922F0110922E0188EE93E0A0E00B
:100C4000B0E08093300190933101A0933201B093D2
:100C5000330184E091E090932D0180932C0185EC89
:100C600090E0909339018093380184EC90E0909368
:100C70003B0180933A0180EC90E090933D0180939A
:100C80003C0181EC90E090933F0180933E0182EC27
:100C900090E0909341018093400186EC90E0909326
:100CA0004301809342011092450110924601109237
:100CB0004701109248010895CF92DF92EF92FF9280
:100CC0000F931F93CF93DF937C016A01EB0100E048
:100CD00010E00C151D0571F06991D701ED91FC91A3
:100CE0000190F081E02DC7010995892B19F00F5F64
:100CF0001F4FEFCFC801DF91CF911F910F91FF9050
:100D0000EF90DF90CF9008956115710581F0DB01C0
:100D10000D900020E9F7AD0141505109461B570BDA
:100D2000DC01ED91FC910280F381E02D099480E0DB
:100D300090E0089560E171E00C9484068F929F9298
:100D4000AF92BF92DF92EF92FF920F931F93CF93D8
:100D5000DF93CDB7DEB7A1970FB6F894DEBF0FBE15
:100D6000CDBF7C01F42FD52ECB0119A2223008F47F
:100D70002AE08E010F5D1F4F822E912CA12CB12CE9
:100D80006F2F7D2DA50194010E942107F22FD32EF4
:100D9000CA01015011096A3014F4E0E301C0E7E32D
:100DA000E60FD801EC93232B242B252B49F7B80110
:100DB000C7010E948406A1960FB6F894DEBF0FBE4D
:100DC000CDBFDF91CF911F910F91FF90EF90DF90FA
:100DD000BF90AF909F908F9008952115310541F4F9
:100DE000DC01ED91FC910190F081E02D642F0994DC
:100DF0000C949E060F931F93CF93DF93EC019A01FF
:100E0000AB0160E070E00E94ED068C01CE010E9413
:100E10009A06800F911FDF91CF911F910F91089536
:100E200008950E9476030E9410070E942D02CFE9C8
:100E3000D4E00E94F3002097E1F30E949F04F9CFD1
:100E40000895A1E21A2EAA1BBB1BFD010DC0AA1F0B
:100E5000BB1FEE1FFF1FA217B307E407F50720F023
:100E6000A21BB30BE40BF50B661F771F881F991F9E
:100E70001A9469F760957095809590959B01AC01E7
:100E8000BD01CF010895EE0FFF1F0590F491E02DF5
:060E90000994F894FFCF65
:100E960000000000F0045C0672048B047D04CE049E
:100EA6000D0A006E616E00696E66006F7666002E32
:020EB60000003A
:107E0000112484B714BE81FFF0D085E080938100F7
:107E100082E08093C00088E18093C10086E0809377
:107E2000C20080E18093C4008EE0C9D0259A86E02C
:107E300020E33CEF91E0309385002093840096BBD3
:107E4000B09BFECF1D9AA8958150A9F7CC24DD24C4
:107E500088248394B5E0AB2EA1E19A2EF3E0BF2EE7
:107E6000A2D0813461F49FD0082FAFD0023811F036
:107E7000013811F484E001C083E08DD089C08234E0
:107E800011F484E103C0853419F485E0A6D080C0E4
:107E9000853579F488D0E82EFF2485D0082F10E0AE
:107EA000102F00270E291F29000F111F8ED06801E7
:107EB0006FC0863521F484E090D080E0DECF843638
:107EC00009F040C070D06FD0082F6DD080E0C81688
:107ED00080E7D80618F4F601B7BEE895C0E0D1E017
:107EE00062D089930C17E1F7F0E0CF16F0E7DF06D8
:107EF00018F0F601B7BEE89568D007B600FCFDCFD4
:107F0000A601A0E0B1E02C9130E011968C91119780
:107F100090E0982F8827822B932B1296FA010C0160
:107F200087BEE89511244E5F5F4FF1E0A038BF0790
:107F300051F7F601A7BEE89507B600FCFDCF97BE46
:107F4000E89526C08437B1F42ED02DD0F82E2BD052
:107F50003CD0F601EF2C8F010F5F1F4F84911BD097
:107F6000EA94F801C1F70894C11CD11CFA94CF0C13
:107F7000D11C0EC0853739F428D08EE10CD085E9AC
:107F80000AD08FE07ACF813511F488E018D01DD067
:107F900080E101D065CF982F8091C00085FFFCCF94
:107FA0009093C60008958091C00087FFFCCF809118
:107FB000C00084FD01C0A8958091C6000895E0E648
:107FC000F0E098E1908380830895EDDF803219F02E
:107FD00088E0F5DFFFCF84E1DECF1F93182FE3DFCA
:107FE0001150E9F7F2DF1F91089580E0E8DFEE27F6
:047FF000FF270994CA
:027FFE00040479
:0400000300007E007B
:00000001FF
